S01A0000456E67696E655F616E645F47656172426F782E737265631B
S11300000C9434000C9446000C9446000C94460066
S11300100C9446000C9446000C9446000C94460044
S11300200C9446000C9446000C9446000C94460034
S11300300C9446000C9446000C9446000C94460024
S11300400C9446000C94CF000C9446000C9446008B
S11300500C9446000C9446000C9446000C94460004
S11300600C9446000C94460011241FBECFEFD8E038
S1130070DEBFCDBF21E0A0E0B1E001C01D92A03001
S1130080B207E1F70E94D9000C94F4000C9400002C
S11300908FE880937A00ECE7F0E08081806C8083C5
S11300A008958EBD0DB407FEFDCF8EB50895CF9390
S11300B0DF93D82FC62F2A988AE08A95F1F700C0DB
S11300C082E00E9451008D2F0E9451008C2F0E94CB
S11300D051002A9A8AE08A95F1F700C0DF91CF9106
S11300E00895CF93C82F2A988AE08A95F1F700C023
S11300F083E00E9451008C2F0E94510080E00E94F6
S113010051002A9A9AE09A95F1F700C0CF91089588
S11301102A9A229A2D982B982C98259A239A2498D7
S113012053985B9A80ED8CBD1DBC2A9880EC0E948C
S113013051002A9A85E38A95F1F700002A9882E013
S11301400E94510088E20E94510082E00E94510006
S113015080E90E94510081E00E94510083E00E94E6
S113016051002A9A8AE20E9471008130B1F460E061
S11301708CE00E94570060E08DE00E94570060E62A
S113018080E60E94570060E680E70E94570060E026
S11301908FE00E94570081E0089580E008951F9247
S11301A00F920FB60F9211240F900FBE0F901F9055
S11301B018950E9448000E948800EAE7F0E0C8E72A
S11301C0D0E0A9E7B0E0808180648083808184FFEF
S11301D0FACF88812C9190E0922B893E934010F0C5
S10F01E02D9AF1CF2D98EFCFF894FFCFAB
S9030000FC
